{
  "_format": "hh-sol-artifact-1",
  "contractName": "JToken",
  "sourceName": "contracts/staking.sol",
  "abi": [
    {
      "inputs": [],
      "stateMutability": "payable",
      "type": "constructor"
    },
    {
      "anonymous": false,
      "inputs": [
        {
          "indexed": true,
          "internalType": "address",
          "name": "the_owner",
          "type": "address"
        },
        {
          "indexed": true,
          "internalType": "address",
          "name": "spender",
          "type": "address"
        },
        {
          "indexed": false,
          "internalType": "uint256",
          "name": "value",
          "type": "uint256"
        }
      ],
      "name": "Approval",
      "type": "event"
    },
    {
      "anonymous": false,
      "inputs": [
        {
          "indexed": true,
          "internalType": "address",
          "name": "addr",
          "type": "address"
        },
        {
          "indexed": false,
          "internalType": "bool",
          "name": "value",
          "type": "bool"
        }
      ],
      "name": "Buy",
      "type": "event"
    },
    {
      "anonymous": false,
      "inputs": [
        {
          "indexed": false,
          "internalType": "uint256",
          "name": "value",
          "type": "uint256"
        }
      ],
      "name": "ChangePrice",
      "type": "event"
    },
    {
      "anonymous": false,
      "inputs": [
        {
          "indexed": true,
          "internalType": "address",
          "name": "previousOwner",
          "type": "address"
        },
        {
          "indexed": true,
          "internalType": "address",
          "name": "newOwner",
          "type": "address"
        }
      ],
      "name": "OwnershipTransferred",
      "type": "event"
    },
    {
      "anonymous": false,
      "inputs": [
        {
          "indexed": false,
          "internalType": "address",
          "name": "addr",
          "type": "address"
        },
        {
          "indexed": false,
          "internalType": "uint256",
          "name": "reward",
          "type": "uint256"
        },
        {
          "indexed": false,
          "internalType": "bool",
          "name": "value",
          "type": "bool"
        }
      ],
      "name": "Reward",
      "type": "event"
    },
    {
      "anonymous": false,
      "inputs": [
        {
          "indexed": false,
          "internalType": "address",
          "name": "addr",
          "type": "address"
        },
        {
          "indexed": false,
          "internalType": "uint256",
          "name": "stake",
          "type": "uint256"
        }
      ],
      "name": "Stake",
      "type": "event"
    },
    {
      "anonymous": false,
      "inputs": [
        {
          "indexed": true,
          "internalType": "address",
          "name": "from",
          "type": "address"
        },
        {
          "indexed": true,
          "internalType": "address",
          "name": "to",
          "type": "address"
        },
        {
          "indexed": false,
          "internalType": "uint256",
          "name": "value",
          "type": "uint256"
        }
      ],
      "name": "Transfer",
      "type": "event"
    },
    {
      "inputs": [
        {
          "internalType": "address",
          "name": "_stakeholder",
          "type": "address"
        }
      ],
      "name": "addStakeholder",
      "outputs": [],
      "stateMutability": "nonpayable",
      "type": "function"
    },
    {
      "inputs": [
        {
          "internalType": "address",
          "name": "",
          "type": "address"
        },
        {
          "internalType": "address",
          "name": "",
          "type": "address"
        }
      ],
      "name": "allowance",
      "outputs": [
        {
          "internalType": "uint256",
          "name": "",
          "type": "uint256"
        }
      ],
      "stateMutability": "view",
      "type": "function"
    },
    {
      "inputs": [
        {
          "internalType": "address",
          "name": "spender",
          "type": "address"
        },
        {
          "internalType": "uint256",
          "name": "amount",
          "type": "uint256"
        }
      ],
      "name": "approve",
      "outputs": [
        {
          "internalType": "bool",
          "name": "",
          "type": "bool"
        }
      ],
      "stateMutability": "nonpayable",
      "type": "function"
    },
    {
      "inputs": [
        {
          "internalType": "address",
          "name": "",
          "type": "address"
        }
      ],
      "name": "balanceOf",
      "outputs": [
        {
          "internalType": "uint256",
          "name": "",
          "type": "uint256"
        }
      ],
      "stateMutability": "view",
      "type": "function"
    },
    {
      "inputs": [
        {
          "internalType": "uint256",
          "name": "amount",
          "type": "uint256"
        }
      ],
      "name": "burn",
      "outputs": [],
      "stateMutability": "nonpayable",
      "type": "function"
    },
    {
      "inputs": [
        {
          "internalType": "address",
          "name": "receiver",
          "type": "address"
        }
      ],
      "name": "buyToken",
      "outputs": [],
      "stateMutability": "payable",
      "type": "function"
    },
    {
      "inputs": [],
      "name": "claimReward",
      "outputs": [],
      "stateMutability": "nonpayable",
      "type": "function"
    },
    {
      "inputs": [
        {
          "internalType": "uint256",
          "name": "_stake",
          "type": "uint256"
        }
      ],
      "name": "createStake",
      "outputs": [],
      "stateMutability": "nonpayable",
      "type": "function"
    },
    {
      "inputs": [],
      "name": "decimals",
      "outputs": [
        {
          "internalType": "uint8",
          "name": "",
          "type": "uint8"
        }
      ],
      "stateMutability": "view",
      "type": "function"
    },
    {
      "inputs": [
        {
          "internalType": "address",
          "name": "_address",
          "type": "address"
        }
      ],
      "name": "getTokenStacked",
      "outputs": [
        {
          "internalType": "uint256",
          "name": "",
          "type": "uint256"
        }
      ],
      "stateMutability": "view",
      "type": "function"
    },
    {
      "inputs": [
        {
          "internalType": "address",
          "name": "_address",
          "type": "address"
        }
      ],
      "name": "isStakeholder",
      "outputs": [
        {
          "internalType": "bool",
          "name": "",
          "type": "bool"
        },
        {
          "internalType": "uint256",
          "name": "",
          "type": "uint256"
        }
      ],
      "stateMutability": "view",
      "type": "function"
    },
    {
      "inputs": [
        {
          "internalType": "uint256",
          "name": "amount",
          "type": "uint256"
        }
      ],
      "name": "mint",
      "outputs": [],
      "stateMutability": "nonpayable",
      "type": "function"
    },
    {
      "inputs": [
        {
          "internalType": "uint256",
          "name": "price",
          "type": "uint256"
        }
      ],
      "name": "modifyTokenBuyPrice",
      "outputs": [],
      "stateMutability": "nonpayable",
      "type": "function"
    },
    {
      "inputs": [],
      "name": "name",
      "outputs": [
        {
          "internalType": "string",
          "name": "",
          "type": "string"
        }
      ],
      "stateMutability": "view",
      "type": "function"
    },
    {
      "inputs": [],
      "name": "numberPerToken",
      "outputs": [
        {
          "internalType": "uint256",
          "name": "",
          "type": "uint256"
        }
      ],
      "stateMutability": "view",
      "type": "function"
    },
    {
      "inputs": [],
      "name": "owner",
      "outputs": [
        {
          "internalType": "address",
          "name": "",
          "type": "address"
        }
      ],
      "stateMutability": "view",
      "type": "function"
    },
    {
      "inputs": [],
      "name": "renounceOwnership",
      "outputs": [],
      "stateMutability": "nonpayable",
      "type": "function"
    },
    {
      "inputs": [
        {
          "internalType": "address",
          "name": "",
          "type": "address"
        }
      ],
      "name": "rewardTimeTracker",
      "outputs": [
        {
          "internalType": "uint256",
          "name": "",
          "type": "uint256"
        }
      ],
      "stateMutability": "view",
      "type": "function"
    },
    {
      "inputs": [],
      "name": "symbol",
      "outputs": [
        {
          "internalType": "string",
          "name": "",
          "type": "string"
        }
      ],
      "stateMutability": "view",
      "type": "function"
    },
    {
      "inputs": [],
      "name": "the_owner",
      "outputs": [
        {
          "internalType": "address payable",
          "name": "",
          "type": "address"
        }
      ],
      "stateMutability": "view",
      "type": "function"
    },
    {
      "inputs": [],
      "name": "tokenPrice",
      "outputs": [
        {
          "internalType": "uint256",
          "name": "",
          "type": "uint256"
        }
      ],
      "stateMutability": "view",
      "type": "function"
    },
    {
      "inputs": [],
      "name": "totalSupply",
      "outputs": [
        {
          "internalType": "uint256",
          "name": "",
          "type": "uint256"
        }
      ],
      "stateMutability": "view",
      "type": "function"
    },
    {
      "inputs": [
        {
          "internalType": "address",
          "name": "to",
          "type": "address"
        },
        {
          "internalType": "uint256",
          "name": "amount",
          "type": "uint256"
        }
      ],
      "name": "transfer",
      "outputs": [
        {
          "internalType": "bool",
          "name": "",
          "type": "bool"
        }
      ],
      "stateMutability": "nonpayable",
      "type": "function"
    },
    {
      "inputs": [
        {
          "internalType": "address",
          "name": "sender",
          "type": "address"
        },
        {
          "internalType": "address",
          "name": "recipient",
          "type": "address"
        },
        {
          "internalType": "uint256",
          "name": "amount",
          "type": "uint256"
        }
      ],
      "name": "transferFrom",
      "outputs": [
        {
          "internalType": "bool",
          "name": "",
          "type": "bool"
        }
      ],
      "stateMutability": "nonpayable",
      "type": "function"
    },
    {
      "inputs": [
        {
          "internalType": "address",
          "name": "newOwner",
          "type": "address"
        }
      ],
      "name": "transferOwnership",
      "outputs": [],
      "stateMutability": "nonpayable",
      "type": "function"
    }
  ],
  "bytecode": "0x60806040526040518060400160405280600681526020017f4a546f6b656e0000000000000000000000000000000000000000000000000000815250600790805190602001906200005192919062000309565b506040518060400160405280600281526020017f4a54000000000000000000000000000000000000000000000000000000000000815250600890805190602001906200009f92919062000309565b506012600960006101000a81548160ff021916908360ff16021790555066038d7ea4c68000600a556103e8600b55620000ed620000e16200015f60201b60201c565b6200016760201b60201c565b69021e19e0c9bab240000060018190555033600c60006101000a81548173ffffffffffffffffffffffffffffffffffffffff021916908373ffffffffffffffffffffffffffffffffffffffff16021790555062000159683635c9adc5dea000006200022b60201b60201c565b620004e2565b600033905090565b60008060009054906101000a900473ffffffffffffffffffffffffffffffffffffffff169050816000806101000a81548173ffffffffffffffffffffffffffffffffffffffff021916908373ffffffffffffffffffffffffffffffffffffffff1602179055508173ffffffffffffffffffffffffffffffffffffffff168173ffffffffffffffffffffffffffffffffffffffff167f8be0079c531659141344cd1fd0a4f28419497f9722a3daafe3b4186f6b6457e060405160405180910390a35050565b80600260003373ffffffffffffffffffffffffffffffffffffffff1673ffffffffffffffffffffffffffffffffffffffff16815260200190815260200160002060008282546200027c9190620003f2565b925050819055508060016000828254620002979190620003f2565b925050819055503373ffffffffffffffffffffffffffffffffffffffff16600073ffffffffffffffffffffffffffffffffffffffff167fddf252ad1be2c89b69c2b068fc378daa952ba7f163c4a11628f55a4df523b3ef83604051620002fe919062000460565b60405180910390a350565b8280546200031790620004ac565b90600052602060002090601f0160209004810192826200033b576000855562000387565b82601f106200035657805160ff191683800117855562000387565b8280016001018555821562000387579182015b828111156200038657825182559160200191906001019062000369565b5b5090506200039691906200039a565b5090565b5b80821115620003b55760008160009055506001016200039b565b5090565b6000819050919050565b7f4e487b7100000000000000000000000000000000000000000000000000000000600052601160045260246000fd5b6000620003ff82620003b9565b91506200040c83620003b9565b9250827fffffffffffffffffffffffffffffffffffffffffffffffffffffffffffffffff03821115620004445762000443620003c3565b5b828201905092915050565b6200045a81620003b9565b82525050565b60006020820190506200047760008301846200044f565b92915050565b7f4e487b7100000000000000000000000000000000000000000000000000000000600052602260045260246000fd5b60006002820490506001821680620004c557607f821691505b60208210811415620004dc57620004db6200047d565b5b50919050565b61201680620004f26000396000f3fe6080604052600436106101665760003560e01c80637ff9b596116100d1578063a9059cbb1161008a578063dd62ed3e11610064578063dd62ed3e1461051f578063e5c42fd11461055c578063ef037b9014610585578063f2fde38b146105c357610166565b8063a9059cbb146104a0578063b88a802f146104dd578063cb23e452146104f457610166565b80637ff9b59614610390578063834dc984146103bb5780638da5cb5b146103e457806393f109001461040f57806395d89b411461044c578063a0712d681461047757610166565b8063313ce56711610123578063313ce5671461028f5780633b02ed1b146102ba57806342966c68146102f757806370a0823114610320578063715018a61461035d5780637e72fb521461037457610166565b806303b143b01461016b57806306fdde0314610196578063095ea7b3146101c157806318160ddd146101fe5780631bf6ddae1461022957806323b872dd14610252575b600080fd5b34801561017757600080fd5b506101806105ec565b60405161018d9190611757565b60405180910390f35b3480156101a257600080fd5b506101ab6105f2565b6040516101b8919061180b565b60405180910390f35b3480156101cd57600080fd5b506101e860048036038101906101e391906118bc565b610680565b6040516101f59190611917565b60405180910390f35b34801561020a57600080fd5b50610213610772565b6040516102209190611757565b60405180910390f35b34801561023557600080fd5b50610250600480360381019061024b9190611932565b610778565b005b34801561025e57600080fd5b506102796004803603810190610274919061195f565b6108e1565b6040516102869190611917565b60405180910390f35b34801561029b57600080fd5b506102a4610a92565b6040516102b191906119ce565b60405180910390f35b3480156102c657600080fd5b506102e160048036038101906102dc91906119e9565b610aa5565b6040516102ee9190611757565b60405180910390f35b34801561030357600080fd5b5061031e60048036038101906103199190611932565b610abd565b005b34801561032c57600080fd5b50610347600480360381019061034291906119e9565b610ac9565b6040516103549190611757565b60405180910390f35b34801561036957600080fd5b50610372610ae1565b005b61038e600480360381019061038991906119e9565b610b69565b005b34801561039c57600080fd5b506103a5610d67565b6040516103b29190611757565b60405180910390f35b3480156103c757600080fd5b506103e260048036038101906103dd9190611932565b610d6d565b005b3480156103f057600080fd5b506103f9610e45565b6040516104069190611a25565b60405180910390f35b34801561041b57600080fd5b50610436600480360381019061043191906119e9565b610e6e565b6040516104439190611757565b60405180910390f35b34801561045857600080fd5b50610461610eb7565b60405161046e919061180b565b60405180910390f35b34801561048357600080fd5b5061049e60048036038101906104999190611932565b610f45565b005b3480156104ac57600080fd5b506104c760048036038101906104c291906118bc565b610f51565b6040516104d49190611917565b60405180910390f35b3480156104e957600080fd5b506104f2610f68565b005b34801561050057600080fd5b50610509611133565b6040516105169190611a61565b60405180910390f35b34801561052b57600080fd5b5061054660048036038101906105419190611a7c565b611159565b6040516105539190611757565b60405180910390f35b34801561056857600080fd5b50610583600480360381019061057e91906119e9565b61117e565b005b34801561059157600080fd5b506105ac60048036038101906105a791906119e9565b6111f9565b6040516105ba929190611abc565b60405180910390f35b3480156105cf57600080fd5b506105ea60048036038101906105e591906119e9565b6112ad565b005b600b5481565b600780546105ff90611b14565b80601f016020809104026020016040519081016040528092919081815260200182805461062b90611b14565b80156106785780601f1061064d57610100808354040283529160200191610678565b820191906000526020600020905b81548152906001019060200180831161065b57829003601f168201915b505050505081565b600081600360003373ffffffffffffffffffffffffffffffffffffffff1673ffffffffffffffffffffffffffffffffffffffff16815260200190815260200160002060008573ffffffffffffffffffffffffffffffffffffffff1673ffffffffffffffffffffffffffffffffffffffff168152602001908152602001600020819055508273ffffffffffffffffffffffffffffffffffffffff163373ffffffffffffffffffffffffffffffffffffffff167f8c5be1e5ebec7d5bd14f71427d1e84f3dd0314c0f7b2291e5b200ac8c7c3b925846040516107609190611757565b60405180910390a36001905092915050565b60015481565b610781816113a5565b6000600460003373ffffffffffffffffffffffffffffffffffffffff1673ffffffffffffffffffffffffffffffffffffffff1681526020019081526020016000205414156107d3576107d23361117e565b5b80600460003373ffffffffffffffffffffffffffffffffffffffff1673ffffffffffffffffffffffffffffffffffffffff1681526020019081526020016000205461081e9190611b75565b600460003373ffffffffffffffffffffffffffffffffffffffff1673ffffffffffffffffffffffffffffffffffffffff1681526020019081526020016000208190555042600660003373ffffffffffffffffffffffffffffffffffffffff1673ffffffffffffffffffffffffffffffffffffffff168152602001908152602001600020819055507febedb8b3c678666e7f36970bc8f57abf6d8fa2e828c0da91ea5b75bf68ed101a33826040516108d6929190611bcb565b60405180910390a150565b600081600360008673ffffffffffffffffffffffffffffffffffffffff1673ffffffffffffffffffffffffffffffffffffffff16815260200190815260200160002060003373ffffffffffffffffffffffffffffffffffffffff1673ffffffffffffffffffffffffffffffffffffffff168152602001908152602001600020600082825461096f9190611bf4565b9250508190555081600260008673ffffffffffffffffffffffffffffffffffffffff1673ffffffffffffffffffffffffffffffffffffffff16815260200190815260200160002060008282546109c59190611bf4565b9250508190555081600260008573ffffffffffffffffffffffffffffffffffffffff1673ffffffffffffffffffffffffffffffffffffffff1681526020019081526020016000206000828254610a1b9190611b75565b925050819055508273ffffffffffffffffffffffffffffffffffffffff168473ffffffffffffffffffffffffffffffffffffffff167fddf252ad1be2c89b69c2b068fc378daa952ba7f163c4a11628f55a4df523b3ef84604051610a7f9190611757565b60405180910390a3600190509392505050565b600960009054906101000a900460ff1681565b60066020528060005260406000206000915090505481565b610ac6816113a5565b50565b60026020528060005260406000206000915090505481565b610ae961147d565b73ffffffffffffffffffffffffffffffffffffffff16610b07610e45565b73ffffffffffffffffffffffffffffffffffffffff1614610b5d576040517f08c379a0000000000000000000000000000000000000000000000000000000008152600401610b5490611c74565b60405180910390fd5b610b676000611485565b565b60003411610bac576040517f08c379a0000000000000000000000000000000000000000000000000000000008152600401610ba390611ce0565b60405180910390fd5b6000600c60009054906101000a900473ffffffffffffffffffffffffffffffffffffffff1673ffffffffffffffffffffffffffffffffffffffff1634604051610bf490611d31565b60006040518083038185875af1925050503d8060008114610c31576040519150601f19603f3d011682016040523d82523d6000602084013e610c36565b606091505b5050905080610c7a576040517f08c379a0000000000000000000000000000000000000000000000000000000008152600401610c7190611d92565b60405180910390fd5b600034600b54610c8a9190611db2565b90508060016000828254610c9e9190611bf4565b9250508190555080600260008573ffffffffffffffffffffffffffffffffffffffff1673ffffffffffffffffffffffffffffffffffffffff1681526020019081526020016000206000828254610cf49190611b75565b925050819055508060016000828254610d0d9190611b75565b925050819055508273ffffffffffffffffffffffffffffffffffffffff167fd37f98db389c251232b04561f75ae96984a3c9a1859e7b944356b2415d7b543183604051610d5a9190611917565b60405180910390a2505050565b600a5481565b610d7561147d565b73ffffffffffffffffffffffffffffffffffffffff16610d93610e45565b73ffffffffffffffffffffffffffffffffffffffff1614610de9576040517f08c379a0000000000000000000000000000000000000000000000000000000008152600401610de090611c74565b60405180910390fd5b80600a819055506000600190508181610e029190611e3b565b600b819055507ffb92488ba7c255b32158331b4dd67ae708a8761b850ca51d1bbf57c177d35f89600a54604051610e399190611757565b60405180910390a15050565b60008060009054906101000a900473ffffffffffffffffffffffffffffffffffffffff16905090565b6000600460008373ffffffffffffffffffffffffffffffffffffffff1673ffffffffffffffffffffffffffffffffffffffff168152602001908152602001600020549050919050565b60088054610ec490611b14565b80601f0160208091040260200160405190810160405280929190818152602001828054610ef090611b14565b8015610f3d5780601f10610f1257610100808354040283529160200191610f3d565b820191906000526020600020905b815481529060010190602001808311610f2057829003601f168201915b505050505081565b610f4e81611549565b50565b6000610f5d8383611621565b506001905092915050565b62093a80600660003373ffffffffffffffffffffffffffffffffffffffff1673ffffffffffffffffffffffffffffffffffffffff16815260200190815260200160002054610fb69190611b75565b42106110f457600060646001600460003373ffffffffffffffffffffffffffffffffffffffff1673ffffffffffffffffffffffffffffffffffffffff1681526020019081526020016000205461100c9190611db2565b6110169190611e3b565b905080600260003373ffffffffffffffffffffffffffffffffffffffff1673ffffffffffffffffffffffffffffffffffffffff16815260200190815260200160002060008282546110679190611b75565b9250508190555042600660003373ffffffffffffffffffffffffffffffffffffffff1673ffffffffffffffffffffffffffffffffffffffff168152602001908152602001600020819055507f937e78ac307af24414540aef54dada4743089db69dc270fd1702148e7211ff02338260016040516110e693929190611e6c565b60405180910390a150611131565b7f937e78ac307af24414540aef54dada4743089db69dc270fd1702148e7211ff023360008060405161112893929190611ee8565b60405180910390a15b565b600c60009054906101000a900473ffffffffffffffffffffffffffffffffffffffff1681565b6003602052816000526040600020602052806000526040600020600091509150505481565b6000611189826111f9565b509050806111f557600d829080600181540180825580915050600190039060005260206000200160009091909190916101000a81548173ffffffffffffffffffffffffffffffffffffffff021916908373ffffffffffffffffffffffffffffffffffffffff1602179055505b5050565b60008060005b600d8054905081101561129f57600d81815481106112205761121f611f1f565b5b9060005260206000200160009054906101000a900473ffffffffffffffffffffffffffffffffffffffff1673ffffffffffffffffffffffffffffffffffffffff168473ffffffffffffffffffffffffffffffffffffffff16141561128b5760018192509250506112a8565b6001816112989190611b75565b90506111ff565b50600080915091505b915091565b6112b561147d565b73ffffffffffffffffffffffffffffffffffffffff166112d3610e45565b73ffffffffffffffffffffffffffffffffffffffff1614611329576040517f08c379a000000000000000000000000000000000000000000000000000000000815260040161132090611c74565b60405180910390fd5b600073ffffffffffffffffffffffffffffffffffffffff168173ffffffffffffffffffffffffffffffffffffffff161415611399576040517f08c379a000000000000000000000000000000000000000000000000000000000815260040161139090611fc0565b60405180910390fd5b6113a281611485565b50565b80600260003373ffffffffffffffffffffffffffffffffffffffff1673ffffffffffffffffffffffffffffffffffffffff16815260200190815260200160002060008282546113f49190611bf4565b92505081905550806001600082825461140d9190611bf4565b92505081905550600073ffffffffffffffffffffffffffffffffffffffff163373ffffffffffffffffffffffffffffffffffffffff167fddf252ad1be2c89b69c2b068fc378daa952ba7f163c4a11628f55a4df523b3ef836040516114729190611757565b60405180910390a350565b600033905090565b60008060009054906101000a900473ffffffffffffffffffffffffffffffffffffffff169050816000806101000a81548173ffffffffffffffffffffffffffffffffffffffff021916908373ffffffffffffffffffffffffffffffffffffffff1602179055508173ffffffffffffffffffffffffffffffffffffffff168173ffffffffffffffffffffffffffffffffffffffff167f8be0079c531659141344cd1fd0a4f28419497f9722a3daafe3b4186f6b6457e060405160405180910390a35050565b80600260003373ffffffffffffffffffffffffffffffffffffffff1673ffffffffffffffffffffffffffffffffffffffff16815260200190815260200160002060008282546115989190611b75565b9250508190555080600160008282546115b19190611b75565b925050819055503373ffffffffffffffffffffffffffffffffffffffff16600073ffffffffffffffffffffffffffffffffffffffff167fddf252ad1be2c89b69c2b068fc378daa952ba7f163c4a11628f55a4df523b3ef836040516116169190611757565b60405180910390a350565b600081600260003373ffffffffffffffffffffffffffffffffffffffff1673ffffffffffffffffffffffffffffffffffffffff16815260200190815260200160002060008282546116729190611bf4565b9250508190555081600260008573ffffffffffffffffffffffffffffffffffffffff1673ffffffffffffffffffffffffffffffffffffffff16815260200190815260200160002060008282546116c89190611b75565b925050819055508273ffffffffffffffffffffffffffffffffffffffff163373ffffffffffffffffffffffffffffffffffffffff167fddf252ad1be2c89b69c2b068fc378daa952ba7f163c4a11628f55a4df523b3ef8460405161172c9190611757565b60405180910390a36001905092915050565b6000819050919050565b6117518161173e565b82525050565b600060208201905061176c6000830184611748565b92915050565b600081519050919050565b600082825260208201905092915050565b60005b838110156117ac578082015181840152602081019050611791565b838111156117bb576000848401525b50505050565b6000601f19601f8301169050919050565b60006117dd82611772565b6117e7818561177d565b93506117f781856020860161178e565b611800816117c1565b840191505092915050565b6000602082019050818103600083015261182581846117d2565b905092915050565b600080fd5b600073ffffffffffffffffffffffffffffffffffffffff82169050919050565b600061185d82611832565b9050919050565b61186d81611852565b811461187857600080fd5b50565b60008135905061188a81611864565b92915050565b6118998161173e565b81146118a457600080fd5b50565b6000813590506118b681611890565b92915050565b600080604083850312156118d3576118d261182d565b5b60006118e18582860161187b565b92505060206118f2858286016118a7565b9150509250929050565b60008115159050919050565b611911816118fc565b82525050565b600060208201905061192c6000830184611908565b92915050565b6000602082840312156119485761194761182d565b5b6000611956848285016118a7565b91505092915050565b6000806000606084860312156119785761197761182d565b5b60006119868682870161187b565b93505060206119978682870161187b565b92505060406119a8868287016118a7565b9150509250925092565b600060ff82169050919050565b6119c8816119b2565b82525050565b60006020820190506119e360008301846119bf565b92915050565b6000602082840312156119ff576119fe61182d565b5b6000611a0d8482850161187b565b91505092915050565b611a1f81611852565b82525050565b6000602082019050611a3a6000830184611a16565b92915050565b6000611a4b82611832565b9050919050565b611a5b81611a40565b82525050565b6000602082019050611a766000830184611a52565b92915050565b60008060408385031215611a9357611a9261182d565b5b6000611aa18582860161187b565b9250506020611ab28582860161187b565b9150509250929050565b6000604082019050611ad16000830185611908565b611ade6020830184611748565b9392505050565b7f4e487b7100000000000000000000000000000000000000000000000000000000600052602260045260246000fd5b60006002820490506001821680611b2c57607f821691505b60208210811415611b4057611b3f611ae5565b5b50919050565b7f4e487b7100000000000000000000000000000000000000000000000000000000600052601160045260246000fd5b6000611b808261173e565b9150611b8b8361173e565b9250827fffffffffffffffffffffffffffffffffffffffffffffffffffffffffffffffff03821115611bc057611bbf611b46565b5b828201905092915050565b6000604082019050611be06000830185611a16565b611bed6020830184611748565b9392505050565b6000611bff8261173e565b9150611c0a8361173e565b925082821015611c1d57611c1c611b46565b5b828203905092915050565b7f4f776e61626c653a2063616c6c6572206973206e6f7420746865206f776e6572600082015250565b6000611c5e60208361177d565b9150611c6982611c28565b602082019050919050565b60006020820190508181036000830152611c8d81611c51565b9050919050565b7f496e73756666696369656e742045746865722070726f76696465640000000000600082015250565b6000611cca601b8361177d565b9150611cd582611c94565b602082019050919050565b60006020820190508181036000830152611cf981611cbd565b9050919050565b600081905092915050565b50565b6000611d1b600083611d00565b9150611d2682611d0b565b600082019050919050565b6000611d3c82611d0e565b9150819050919050565b7f4661696c656420746f2073656e64206d6f6e6579000000000000000000000000600082015250565b6000611d7c60148361177d565b9150611d8782611d46565b602082019050919050565b60006020820190508181036000830152611dab81611d6f565b9050919050565b6000611dbd8261173e565b9150611dc88361173e565b9250817fffffffffffffffffffffffffffffffffffffffffffffffffffffffffffffffff0483118215151615611e0157611e00611b46565b5b828202905092915050565b7f4e487b7100000000000000000000000000000000000000000000000000000000600052601260045260246000fd5b6000611e468261173e565b9150611e518361173e565b925082611e6157611e60611e0c565b5b828204905092915050565b6000606082019050611e816000830186611a16565b611e8e6020830185611748565b611e9b6040830184611908565b949350505050565b6000819050919050565b6000819050919050565b6000611ed2611ecd611ec884611ea3565b611ead565b61173e565b9050919050565b611ee281611eb7565b82525050565b6000606082019050611efd6000830186611a16565b611f0a6020830185611ed9565b611f176040830184611908565b949350505050565b7f4e487b7100000000000000000000000000000000000000000000000000000000600052603260045260246000fd5b7f4f776e61626c653a206e6577206f776e657220697320746865207a65726f206160008201527f6464726573730000000000000000000000000000000000000000000000000000602082015250565b6000611faa60268361177d565b9150611fb582611f4e565b604082019050919050565b60006020820190508181036000830152611fd981611f9d565b905091905056fea26469706673582212208b8a3673a4db56fd44a54544a78adebeab8dbcdfb4dbb7cdc5a81620df4bec9164736f6c634300080a0033",
  "linkReferences": {},
  "deployedLinkReferences": {}
}